{
  "contractName": "ICOSale",
  "abi": [
    {
      "inputs": [
        {
          "internalType": "uint256",
          "name": "_initialPriceInWei",
          "type": "uint256"
        },
        {
          "internalType": "address",
          "name": "_erc20TokenAddress",
          "type": "address"
        },
        {
          "internalType": "uint8",
          "name": "_decimal",
          "type": "uint8"
        }
      ],
      "stateMutability": "nonpayable",
      "type": "constructor"
    },
    {
      "inputs": [
        {
          "internalType": "address",
          "name": "",
          "type": "address"
        }
      ],
      "name": "boughtAmount",
      "outputs": [
        {
          "internalType": "uint256",
          "name": "",
          "type": "uint256"
        }
      ],
      "stateMutability": "view",
      "type": "function"
    },
    {
      "inputs": [],
      "name": "decimal",
      "outputs": [
        {
          "internalType": "uint8",
          "name": "",
          "type": "uint8"
        }
      ],
      "stateMutability": "view",
      "type": "function"
    },
    {
      "inputs": [],
      "name": "erc20",
      "outputs": [
        {
          "internalType": "address",
          "name": "",
          "type": "address"
        }
      ],
      "stateMutability": "view",
      "type": "function"
    },
    {
      "inputs": [],
      "name": "governor",
      "outputs": [
        {
          "internalType": "address",
          "name": "",
          "type": "address"
        }
      ],
      "stateMutability": "view",
      "type": "function"
    },
    {
      "inputs": [],
      "name": "priceInWei",
      "outputs": [
        {
          "internalType": "uint256",
          "name": "",
          "type": "uint256"
        }
      ],
      "stateMutability": "view",
      "type": "function"
    },
    {
      "inputs": [
        {
          "internalType": "uint256",
          "name": "_amount",
          "type": "uint256"
        },
        {
          "internalType": "address",
          "name": "receiver",
          "type": "address"
        }
      ],
      "name": "BuyWithWei",
      "outputs": [],
      "stateMutability": "payable",
      "type": "function"
    },
    {
      "inputs": [
        {
          "internalType": "uint256",
          "name": "_amount",
          "type": "uint256"
        }
      ],
      "name": "AddReserves",
      "outputs": [],
      "stateMutability": "nonpayable",
      "type": "function"
    },
    {
      "inputs": [
        {
          "internalType": "uint256",
          "name": "_amount",
          "type": "uint256"
        }
      ],
      "name": "RemoveReserves",
      "outputs": [],
      "stateMutability": "nonpayable",
      "type": "function"
    },
    {
      "inputs": [],
      "name": "GetReserves",
      "outputs": [
        {
          "internalType": "uint256",
          "name": "",
          "type": "uint256"
        }
      ],
      "stateMutability": "view",
      "type": "function"
    },
    {
      "inputs": [],
      "name": "GetWeiBalance",
      "outputs": [
        {
          "internalType": "uint256",
          "name": "",
          "type": "uint256"
        }
      ],
      "stateMutability": "view",
      "type": "function"
    },
    {
      "inputs": [
        {
          "internalType": "uint256",
          "name": "_amount",
          "type": "uint256"
        }
      ],
      "name": "WithdrawWei",
      "outputs": [],
      "stateMutability": "nonpayable",
      "type": "function"
    },
    {
      "inputs": [
        {
          "internalType": "uint256",
          "name": "_amount",
          "type": "uint256"
        }
      ],
      "name": "ChangePrice",
      "outputs": [],
      "stateMutability": "nonpayable",
      "type": "function"
    },
    {
      "inputs": [
        {
          "internalType": "address",
          "name": "_address",
          "type": "address"
        }
      ],
      "name": "GetBoughtAmount",
      "outputs": [
        {
          "internalType": "uint256",
          "name": "",
          "type": "uint256"
        }
      ],
      "stateMutability": "view",
      "type": "function"
    }
  ],
  "bytecode": "0x608060405234801561001057600080fd5b506040516112fb3803806112fb8339818101604052606081101561003357600080fd5b81019080805190602001909291908051906020019092919080519060200190929190505050336000806101000a81548173ffffffffffffffffffffffffffffffffffffffff021916908373ffffffffffffffffffffffffffffffffffffffff1602179055508260018190555081600260016101000a81548173ffffffffffffffffffffffffffffffffffffffff021916908373ffffffffffffffffffffffffffffffffffffffff16021790555080600260006101000a81548160ff021916908360ff1602179055505050506111ee8061010d6000396000f3fe6080604052600436106100df576000357c010000000000000000000000000000000000000000000000000000000090048063764a730a1161009c5780638ea1e30f116100765780638ea1e30f1461036c57806397508ff5146103a7578063decb065a146103d2578063fb92488b1461040d576100df565b8063764a730a1461027f57806376809ce3146102e4578063785e9e8614610315576100df565b8063011eb0d5146100e45780630c340a24146101325780630cdb7bb61461018957806329aa9e39146101ee5780632f4cae07146102195780633c8da58814610254575b600080fd5b610130600480360360408110156100fa57600080fd5b8101908080359060200190929190803573ffffffffffffffffffffffffffffffffffffffff169060200190929190505050610448565b005b34801561013e57600080fd5b506101476106b7565b604051808273ffffffffffffffffffffffffffffffffffffffff1673ffffffffffffffffffffffffffffffffffffffff16815260200191505060405180910390f35b34801561019557600080fd5b506101d8600480360360208110156101ac57600080fd5b81019080803573ffffffffffffffffffffffffffffffffffffffff1690602001909291905050506106dc565b6040518082815260200191505060405180910390f35b3480156101fa57600080fd5b50610203610725565b6040518082815260200191505060405180910390f35b34801561022557600080fd5b506102526004803603602081101561023c57600080fd5b8101908080359060200190929190505050610822565b005b34801561026057600080fd5b50610269610c19565b6040518082815260200191505060405180910390f35b34801561028b57600080fd5b506102ce600480360360208110156102a257600080fd5b81019080803573ffffffffffffffffffffffffffffffffffffffff169060200190929190505050610c1f565b6040518082815260200191505060405180910390f35b3480156102f057600080fd5b506102f9610c37565b604051808260ff1660ff16815260200191505060405180910390f35b34801561032157600080fd5b5061032a610c4a565b604051808273ffffffffffffffffffffffffffffffffffffffff1673ffffffffffffffffffffffffffffffffffffffff16815260200191505060405180910390f35b34801561037857600080fd5b506103a56004803603602081101561038f57600080fd5b8101908080359060200190929190505050610c70565b005b3480156103b357600080fd5b506103bc610d88565b6040518082815260200191505060405180910390f35b3480156103de57600080fd5b5061040b600480360360208110156103f557600080fd5b8101908080359060200190929190505050610da7565b005b34801561041957600080fd5b506104466004803603602081101561043057600080fd5b8101908080359060200190929190505050610fcd565b005b600082116104be576040517f08c379a00000000000000000000000000000000000000000000000000000000081526004018080602001828103825260148152602001807f5a65726f2057656920497320496e76616c69642100000000000000000000000081525060200191505060405180910390fd5b348214610533576040517f08c379a000000000000000000000000000000000000000000000000000000000815260040180806020018281038252600f8152602001807f4e6f7420456e6f7567682057656921000000000000000000000000000000000081525060200191505060405180910390fd5b6000600154600260009054906101000a900460ff1660ff168161055257fe5b04831890506000811161056457600080fd5b600260019054906101000a900473ffffffffffffffffffffffffffffffffffffffff1673ffffffffffffffffffffffffffffffffffffffff1663a9059cbb33836040518363ffffffff167c0100000000000000000000000000000000000000000000000000000000028152600401808373ffffffffffffffffffffffffffffffffffffffff1673ffffffffffffffffffffffffffffffffffffffff16815260200182815260200192505050602060405180830381600087803b15801561062957600080fd5b505af115801561063d573d6000803e3d6000fd5b505050506040513d602081101561065357600080fd5b81019080805190602001909291905050505082600360003373ffffffffffffffffffffffffffffffffffffffff1673ffffffffffffffffffffffffffffffffffffffff16815260200190815260200160002060008282540192505081905550505050565b6000809054906101000a900473ffffffffffffffffffffffffffffffffffffffff1681565b6000600360008373ffffffffffffffffffffffffffffffffffffffff1673ffffffffffffffffffffffffffffffffffffffff168152602001908152602001600020549050919050565b6000600260019054906101000a900473ffffffffffffffffffffffffffffffffffffffff1673ffffffffffffffffffffffffffffffffffffffff166370a08231306040518263ffffffff167c0100000000000000000000000000000000000000000000000000000000028152600401808273ffffffffffffffffffffffffffffffffffffffff1673ffffffffffffffffffffffffffffffffffffffff16815260200191505060206040518083038186803b1580156107e257600080fd5b505afa1580156107f6573d6000803e3d6000fd5b505050506040513d602081101561080c57600080fd5b8101908080519060200190929190505050905090565b6000809054906101000a900473ffffffffffffffffffffffffffffffffffffffff1673ffffffffffffffffffffffffffffffffffffffff163373ffffffffffffffffffffffffffffffffffffffff16146108e4576040517f08c379a000000000000000000000000000000000000000000000000000000000815260040180806020018281038252601f8152602001807f4f6e6c7920476f7665726e6f722043616e20416464205265736572766573210081525060200191505060405180910390fd5b6000811161095a576040517f08c379a00000000000000000000000000000000000000000000000000000000081526004018080602001828103825260208152602001807f596f75204861766520416464204d6f7265205468656e203020546f6b656e732181525060200191505060405180910390fd5b6000600260019054906101000a900473ffffffffffffffffffffffffffffffffffffffff1673ffffffffffffffffffffffffffffffffffffffff1663dd62ed3e33306040518363ffffffff167c0100000000000000000000000000000000000000000000000000000000028152600401808373ffffffffffffffffffffffffffffffffffffffff1673ffffffffffffffffffffffffffffffffffffffff1681526020018273ffffffffffffffffffffffffffffffffffffffff1673ffffffffffffffffffffffffffffffffffffffff1681526020019250505060206040518083038186803b158015610a4b57600080fd5b505afa158015610a5f573d6000803e3d6000fd5b505050506040513d6020811015610a7557600080fd5b81019080805190602001909291905050509050818114610ae0576040517f08c379a000000000000000000000000000000000000000000000000000000000815260040180806020018281038252603f815260200180611132603f913960400191505060405180910390fd5b600260019054906101000a900473ffffffffffffffffffffffffffffffffffffffff1673ffffffffffffffffffffffffffffffffffffffff166323b872dd3330856040518463ffffffff167c0100000000000000000000000000000000000000000000000000000000028152600401808473ffffffffffffffffffffffffffffffffffffffff1673ffffffffffffffffffffffffffffffffffffffff1681526020018373ffffffffffffffffffffffffffffffffffffffff1673ffffffffffffffffffffffffffffffffffffffff1681526020018281526020019350505050602060405180830381600087803b158015610bd957600080fd5b505af1158015610bed573d6000803e3d6000fd5b505050506040513d6020811015610c0357600080fd5b8101908080519060200190929190505050505050565b60015481565b60036020528060005260406000206000915090505481565b600260009054906101000a900460ff1681565b600260019054906101000a900473ffffffffffffffffffffffffffffffffffffffff1681565b6000809054906101000a900473ffffffffffffffffffffffffffffffffffffffff1673ffffffffffffffffffffffffffffffffffffffff163373ffffffffffffffffffffffffffffffffffffffff1614610d15576040517f08c379a00000000000000000000000000000000000000000000000000000000081526004018080602001828103825260238152602001806111966023913960400191505060405180910390fd5b803073ffffffffffffffffffffffffffffffffffffffff16311115610d85576040517f08c379a00000000000000000000000000000000000000000000000000000000081526004018080602001828103825260258152602001806111716025913960400191505060405180910390fd5b50565b60003073ffffffffffffffffffffffffffffffffffffffff1631905090565b6000809054906101000a900473ffffffffffffffffffffffffffffffffffffffff1673ffffffffffffffffffffffffffffffffffffffff163373ffffffffffffffffffffffffffffffffffffffff1614610e4c576040517f08c379a00000000000000000000000000000000000000000000000000000000081526004018080602001828103825260228152602001806111106022913960400191505060405180910390fd5b80610e55610725565b1115610ec9576040517f08c379a000000000000000000000000000000000000000000000000000000000815260040180806020018281038252601b8152602001807f4e6f7420456e6f75676820546f6b656e20546f2052656d6f766521000000000081525060200191505060405180910390fd5b600260019054906101000a900473ffffffffffffffffffffffffffffffffffffffff1673ffffffffffffffffffffffffffffffffffffffff1663a9059cbb33836040518363ffffffff167c0100000000000000000000000000000000000000000000000000000000028152600401808373ffffffffffffffffffffffffffffffffffffffff1673ffffffffffffffffffffffffffffffffffffffff16815260200182815260200192505050602060405180830381600087803b158015610f8e57600080fd5b505af1158015610fa2573d6000803e3d6000fd5b505050506040513d6020811015610fb857600080fd5b81019080805190602001909291905050505050565b6000809054906101000a900473ffffffffffffffffffffffffffffffffffffffff1673ffffffffffffffffffffffffffffffffffffffff163373ffffffffffffffffffffffffffffffffffffffff161461108f576040517f08c379a000000000000000000000000000000000000000000000000000000000815260040180806020018281038252601f8152602001807f4f6e6c7920476f7665726e6f722043616e204368616e6772205072696365210081525060200191505060405180910390fd5b60008111611105576040517f08c379a00000000000000000000000000000000000000000000000000000000081526004018080602001828103825260158152602001807f50726963652043616e6e6f74204265205a65726f21000000000000000000000081525060200191505060405180910390fd5b806001819055505056fe4f6e6c7920476f7665726e6f722043616e2052656d6f766520526573657276657321506c6561736520417070726f76652054686520436f6e74726163742041646472657373205769746820416d6f756e7420546f204265205265736572766564214e6f7420456e6f7567682057656920436f6c6c656374656420546f205769746864726177214f6e6c7920476f7665726e6f722043616e205769746864726177205468652057656921a26469706673582212207e9105a200bb35ebefc4479767d866c98bc13c6cfcff12d075c14c964938461e64736f6c63430006000033",
  "source": "pragma solidity ^0.6.0;\n\nimport \"@openzeppelin/contracts/token/ERC20/IERC20.sol\";\n\ncontract ICOSale {\n\n\taddress public governor;\n\tuint public priceInWei;\n\tuint8 public decimal;\n\taddress public erc20;\n\tmapping(address => uint) public boughtAmount;\n\n\tconstructor(uint _initialPriceInWei,address _erc20TokenAddress, uint8 _decimal) public {\n\t\tgovernor = msg.sender;\n\t\tpriceInWei = _initialPriceInWei;\n\t\terc20 = _erc20TokenAddress;\n\t\tdecimal = _decimal;\n\t}\n\t\n\tfunction BuyWithWei(uint _amount,address receiver) external payable {\n\t\trequire(_amount > 0,\"Zero Wei Is Invalid!\");\n\t\trequire(_amount == msg.value,\"Not Enough Wei!\");\n\t\tuint _amounttosell = _amount ^ decimal/priceInWei;\n\t\trequire(_amounttosell > 0);\n\t\tIERC20(erc20).transfer(msg.sender,_amounttosell);\n\t\tboughtAmount[msg.sender] += _amount;\n\t}\n\n\tfunction AddReserves(uint _amount) external {\n\t\trequire(msg.sender == governor,\"Only Governor Can Add Reserves!\");\n\t\trequire(_amount > 0,\"You Have Add More Then 0 Tokens!\");\n\t\tuint _allowance = IERC20(erc20).allowance(msg.sender,address(this));\n\t\trequire(_allowance == _amount,\"Please Approve The Contract Address With Amount To Be Reserved!\");\n\t\tIERC20(erc20).transferFrom(msg.sender,address(this),_amount);\n\t}\n\n\tfunction RemoveReserves(uint _amount) external {\n\t\trequire(msg.sender == governor,\"Only Governor Can Remove Reserves!\");\n\t\trequire(GetReserves() <= _amount,\"Not Enough Token To Remove!\");\n\t\tIERC20(erc20).transfer(msg.sender,_amount);\n\t}\n\n\tfunction GetReserves() public view  returns (uint) {\n\t\treturn IERC20(erc20).balanceOf(address(this));\n\t}\n\n\tfunction GetWeiBalance() public view returns (uint) {\n\t\treturn address(this).balance;\n\t}\n\t\n\tfunction WithdrawWei(uint _amount) external {\n\t\trequire(msg.sender == governor,\"Only Governor Can Withdraw The Wei!\");\n\t\trequire(address(this).balance <= _amount,\"Not Enough Wei Collected To Withdraw!\");\n\t\tmsg.sender.call.value(_amount);\n\t}\n\n\tfunction ChangePrice(uint _amount) external {\n\t\trequire(msg.sender == governor,\"Only Governor Can Changr Price!\");\n\t\trequire(_amount > 0,\"Price Cannot Be Zero!\");\n\t\tpriceInWei = _amount;\n\t}\n\n\tfunction GetBoughtAmount(address _address) public view returns (uint) {\n\t\treturn boughtAmount[_address];\n\t}\n\t\n}\n\ncontract ICOFactory {\n\n\tfunction NewICOSale(uint _initialPriceInWei,address _tokenAddress,uint8 _decimal) public returns(address) {\n\t\tICOSale c = new ICOSale(_initialPriceInWei,_tokenAddress,_decimal);\n\t\treturn address(c);\n\t}\n}\n",
  "sourcePath": "/data/data/com.termux/files/home/ICOSale/contracts/ICOSale.sol",
  "compiler": {
    "name": "solc",
    "version": "0.6.0+commit.26b70077.Emscripten.clang"
  },
  "schemaVersion": "3.2.0",
  "updatedAt": "2020-11-07T14:48:39.029Z",
  "devdoc": {
    "methods": {}
  },
  "userdoc": {
    "methods": {}
  }
}